{
  "contractName": "TokenTransfer",
  "abi": [
    {
      "inputs": [
        {
          "internalType": "uint256",
          "name": "initialSupply",
          "type": "uint256"
        }
      ],
      "stateMutability": "nonpayable",
      "type": "constructor"
    },
    {
      "anonymous": false,
      "inputs": [
        {
          "indexed": true,
          "internalType": "address",
          "name": "from",
          "type": "address"
        },
        {
          "indexed": true,
          "internalType": "address",
          "name": "to",
          "type": "address"
        },
        {
          "indexed": false,
          "internalType": "uint256",
          "name": "amount",
          "type": "uint256"
        }
      ],
      "name": "Transfer",
      "type": "event"
    },
    {
      "inputs": [
        {
          "internalType": "address",
          "name": "",
          "type": "address"
        }
      ],
      "name": "balances",
      "outputs": [
        {
          "internalType": "uint256",
          "name": "",
          "type": "uint256"
        }
      ],
      "stateMutability": "view",
      "type": "function",
      "constant": true
    },
    {
      "inputs": [],
      "name": "owner",
      "outputs": [
        {
          "internalType": "address",
          "name": "",
          "type": "address"
        }
      ],
      "stateMutability": "view",
      "type": "function",
      "constant": true
    },
    {
      "inputs": [
        {
          "internalType": "address",
          "name": "to",
          "type": "address"
        },
        {
          "internalType": "uint256",
          "name": "amount",
          "type": "uint256"
        }
      ],
      "name": "transfer",
      "outputs": [],
      "stateMutability": "nonpayable",
      "type": "function"
    }
  ],
  "bytecode": "0x608060405234801561000f575f5ffd5b506040516107c33803806107c38339818101604052810190610031919061010f565b335f5f6101000a81548173ffffffffffffffffffffffffffffffffffffffff021916908373ffffffffffffffffffffffffffffffffffffffff1602179055508060015f5f5f9054906101000a900473ffffffffffffffffffffffffffffffffffffffff1673ffffffffffffffffffffffffffffffffffffffff1673ffffffffffffffffffffffffffffffffffffffff1681526020019081526020015f20819055505061013a565b5f5ffd5b5f819050919050565b6100ee816100dc565b81146100f8575f5ffd5b50565b5f81519050610109816100e5565b92915050565b5f60208284031215610124576101236100d8565b5b5f610131848285016100fb565b91505092915050565b61067c806101475f395ff3fe608060405234801561000f575f5ffd5b506004361061003f575f3560e01c806327e235e3146100435780638da5cb5b14610073578063a9059cbb14610091575b5f5ffd5b61005d600480360381019061005891906103c1565b6100ad565b60405161006a9190610404565b60405180910390f35b61007b6100c2565b604051610088919061042c565b60405180910390f35b6100ab60048036038101906100a6919061046f565b6100e6565b005b6001602052805f5260405f205f915090505481565b5f5f9054906101000a900473ffffffffffffffffffffffffffffffffffffffff1681565b5f5f9054906101000a900473ffffffffffffffffffffffffffffffffffffffff1673ffffffffffffffffffffffffffffffffffffffff163373ffffffffffffffffffffffffffffffffffffffff1614610174576040517f08c379a000000000000000000000000000000000000000000000000000000000815260040161016b9061052d565b60405180910390fd5b8060015f5f5f9054906101000a900473ffffffffffffffffffffffffffffffffffffffff1673ffffffffffffffffffffffffffffffffffffffff1673ffffffffffffffffffffffffffffffffffffffff1681526020019081526020015f20541015610214576040517f08c379a000000000000000000000000000000000000000000000000000000000815260040161020b90610595565b60405180910390fd5b8060015f5f5f9054906101000a900473ffffffffffffffffffffffffffffffffffffffff1673ffffffffffffffffffffffffffffffffffffffff1673ffffffffffffffffffffffffffffffffffffffff1681526020019081526020015f205f82825461028091906105e0565b925050819055508060015f8473ffffffffffffffffffffffffffffffffffffffff1673ffffffffffffffffffffffffffffffffffffffff1681526020019081526020015f205f8282546102d39190610613565b925050819055508173ffffffffffffffffffffffffffffffffffffffff165f5f9054906101000a900473ffffffffffffffffffffffffffffffffffffffff1673ffffffffffffffffffffffffffffffffffffffff167fddf252ad1be2c89b69c2b068fc378daa952ba7f163c4a11628f55a4df523b3ef836040516103579190610404565b60405180910390a35050565b5f5ffd5b5f73ffffffffffffffffffffffffffffffffffffffff82169050919050565b5f61039082610367565b9050919050565b6103a081610386565b81146103aa575f5ffd5b50565b5f813590506103bb81610397565b92915050565b5f602082840312156103d6576103d5610363565b5b5f6103e3848285016103ad565b91505092915050565b5f819050919050565b6103fe816103ec565b82525050565b5f6020820190506104175f8301846103f5565b92915050565b61042681610386565b82525050565b5f60208201905061043f5f83018461041d565b92915050565b61044e816103ec565b8114610458575f5ffd5b50565b5f8135905061046981610445565b92915050565b5f5f6040838503121561048557610484610363565b5b5f610492858286016103ad565b92505060206104a38582860161045b565b9150509250929050565b5f82825260208201905092915050565b7f4f6e6c79206f776e65722063616e20706572666f726d207468697320616374695f8201527f6f6e000000000000000000000000000000000000000000000000000000000000602082015250565b5f6105176022836104ad565b9150610522826104bd565b604082019050919050565b5f6020820190508181035f8301526105448161050b565b9050919050565b7f496e73756666696369656e742062616c616e63650000000000000000000000005f82015250565b5f61057f6014836104ad565b915061058a8261054b565b602082019050919050565b5f6020820190508181035f8301526105ac81610573565b9050919050565b7f4e487b71000000000000000000000000000000000000000000000000000000005f52601160045260245ffd5b5f6105ea826103ec565b91506105f5836103ec565b925082820390508181111561060d5761060c6105b3565b5b92915050565b5f61061d826103ec565b9150610628836103ec565b92508282019050808211156106405761063f6105b3565b5b9291505056fea264697066735822122025e040fd7becc043a7c37e437bea1a9208445d0dfc0fbddd5557424ae2c91ff764736f6c634300081c0033",
  "immutableReferences": {},
  "source": "// SPDX-License-Identifier: MIT\r\npragma solidity ^0.8.0;\r\n\r\ncontract TokenTransfer {\r\n    address public owner;\r\n    mapping(address => uint256) public balances;\r\n\r\n    event Transfer(address indexed from, address indexed to, uint256 amount);\r\n\r\n    constructor(uint256 initialSupply) {\r\n        owner = msg.sender;\r\n        balances[owner] = initialSupply;\r\n    }\r\n\r\n    modifier onlyOwner() {\r\n        require(msg.sender == owner, \"Only owner can perform this action\");\r\n        _;\r\n    }\r\n\r\n    function transfer(address to, uint256 amount) public onlyOwner {\r\n        require(balances[owner] >= amount, \"Insufficient balance\");\r\n        balances[owner] -= amount;\r\n        balances[to] += amount;\r\n\r\n        emit Transfer(owner, to, amount);\r\n    }\r\n}\r\n",
  "sourcePath": "C:\\Users\\sk957\\TokenTransfer\\contracts\\TokenTransfer.sol",
  "compiler": {
    "name": "solc",
    "version": "0.8.28+commit.7893614a.Emscripten.clang"
  },
  "schemaVersion": "3.4.16",
  "updatedAt": "2024-11-21T11:47:38.412Z",
  "networkType": "ethereum",
  "devdoc": {
    "kind": "dev",
    "methods": {},
    "version": 1
  },
  "userdoc": {
    "kind": "user",
    "methods": {},
    "version": 1
  }
}